{
  "contractName": "NebulaStorage",
  "abi": [
    {
      "inputs": [],
      "name": "AlreadyDeleted",
      "type": "error"
    },
    {
      "inputs": [],
      "name": "EmptyHash",
      "type": "error"
    },
    {
      "inputs": [],
      "name": "EmptyName",
      "type": "error"
    },
    {
      "inputs": [],
      "name": "InvalidFileId",
      "type": "error"
    },
    {
      "inputs": [],
      "name": "InvalidSignature",
      "type": "error"
    },
    {
      "inputs": [],
      "name": "NotOwner",
      "type": "error"
    },
    {
      "inputs": [],
      "name": "SignatureExpired",
      "type": "error"
    },
    {
      "anonymous": false,
      "inputs": [
        {
          "indexed": true,
          "internalType": "uint256",
          "name": "fileId",
          "type": "uint256"
        },
        {
          "indexed": true,
          "internalType": "address",
          "name": "owner",
          "type": "address"
        }
      ],
      "name": "FileDeleted",
      "type": "event"
    },
    {
      "anonymous": false,
      "inputs": [
        {
          "indexed": true,
          "internalType": "uint256",
          "name": "fileId",
          "type": "uint256"
        },
        {
          "indexed": false,
          "internalType": "string",
          "name": "name",
          "type": "string"
        },
        {
          "indexed": false,
          "internalType": "string",
          "name": "ipfsHash",
          "type": "string"
        },
        {
          "indexed": true,
          "internalType": "address",
          "name": "uploader",
          "type": "address"
        },
        {
          "indexed": false,
          "internalType": "uint256",
          "name": "timestamp",
          "type": "uint256"
        }
      ],
      "name": "FileUploaded",
      "type": "event"
    },
    {
      "inputs": [],
      "name": "fileCount",
      "outputs": [
        {
          "internalType": "uint256",
          "name": "",
          "type": "uint256"
        }
      ],
      "stateMutability": "view",
      "type": "function",
      "constant": true
    },
    {
      "inputs": [
        {
          "internalType": "uint256",
          "name": "",
          "type": "uint256"
        }
      ],
      "name": "files",
      "outputs": [
        {
          "internalType": "string",
          "name": "name",
          "type": "string"
        },
        {
          "internalType": "string",
          "name": "ipfsHash",
          "type": "string"
        },
        {
          "internalType": "address",
          "name": "uploader",
          "type": "address"
        },
        {
          "internalType": "uint256",
          "name": "timestamp",
          "type": "uint256"
        },
        {
          "internalType": "bool",
          "name": "exists",
          "type": "bool"
        }
      ],
      "stateMutability": "view",
      "type": "function",
      "constant": true
    },
    {
      "inputs": [
        {
          "internalType": "address",
          "name": "",
          "type": "address"
        },
        {
          "internalType": "uint256",
          "name": "",
          "type": "uint256"
        }
      ],
      "name": "filesByOwner",
      "outputs": [
        {
          "internalType": "uint256",
          "name": "",
          "type": "uint256"
        }
      ],
      "stateMutability": "view",
      "type": "function",
      "constant": true
    },
    {
      "inputs": [
        {
          "internalType": "address",
          "name": "",
          "type": "address"
        }
      ],
      "name": "nonces",
      "outputs": [
        {
          "internalType": "uint256",
          "name": "",
          "type": "uint256"
        }
      ],
      "stateMutability": "view",
      "type": "function",
      "constant": true
    },
    {
      "inputs": [
        {
          "internalType": "string",
          "name": "_name",
          "type": "string"
        },
        {
          "internalType": "string",
          "name": "_ipfsHash",
          "type": "string"
        },
        {
          "internalType": "address",
          "name": "_user",
          "type": "address"
        },
        {
          "internalType": "uint256",
          "name": "_nonce",
          "type": "uint256"
        },
        {
          "internalType": "uint256",
          "name": "_deadline",
          "type": "uint256"
        },
        {
          "internalType": "bytes",
          "name": "_signature",
          "type": "bytes"
        }
      ],
      "name": "uploadFileMeta",
      "outputs": [],
      "stateMutability": "nonpayable",
      "type": "function"
    },
    {
      "inputs": [
        {
          "internalType": "uint256",
          "name": "_fileId",
          "type": "uint256"
        },
        {
          "internalType": "address",
          "name": "_user",
          "type": "address"
        },
        {
          "internalType": "uint256",
          "name": "_nonce",
          "type": "uint256"
        },
        {
          "internalType": "uint256",
          "name": "_deadline",
          "type": "uint256"
        },
        {
          "internalType": "bytes",
          "name": "_signature",
          "type": "bytes"
        }
      ],
      "name": "deleteFileMeta",
      "outputs": [],
      "stateMutability": "nonpayable",
      "type": "function"
    },
    {
      "inputs": [
        {
          "internalType": "string",
          "name": "_name",
          "type": "string"
        },
        {
          "internalType": "string",
          "name": "_ipfsHash",
          "type": "string"
        }
      ],
      "name": "uploadFile",
      "outputs": [],
      "stateMutability": "nonpayable",
      "type": "function"
    },
    {
      "inputs": [
        {
          "internalType": "uint256",
          "name": "_fileId",
          "type": "uint256"
        }
      ],
      "name": "getFile",
      "outputs": [
        {
          "internalType": "string",
          "name": "name",
          "type": "string"
        },
        {
          "internalType": "string",
          "name": "ipfsHash",
          "type": "string"
        },
        {
          "internalType": "address",
          "name": "uploader",
          "type": "address"
        },
        {
          "internalType": "uint256",
          "name": "timestamp",
          "type": "uint256"
        },
        {
          "internalType": "bool",
          "name": "exists",
          "type": "bool"
        }
      ],
      "stateMutability": "view",
      "type": "function",
      "constant": true
    },
    {
      "inputs": [
        {
          "internalType": "address",
          "name": "_owner",
          "type": "address"
        }
      ],
      "name": "getFilesByOwner",
      "outputs": [
        {
          "internalType": "uint256[]",
          "name": "",
          "type": "uint256[]"
        }
      ],
      "stateMutability": "view",
      "type": "function",
      "constant": true
    }
  ],
  "bytecode": "0x608060405234801561000f575f80fd5b50611f688061001d5f395ff3fe608060405234801561000f575f80fd5b5060043610610091575f3560e01c8063986c7a9c11610064578063986c7a9c14610133578063996d50bf1461014f578063b85444931461016b578063f4c714b41461019b578063fc08a7d7146101cf57610091565b80632bfda313146100955780634259ffda146100c957806343953519146100e55780637ecebe0014610103575b5f80fd5b6100af60048036038101906100aa9190611243565b6101ff565b6040516100c0959493929190611360565b60405180910390f35b6100e360048036038101906100de919061149f565b61042d565b005b6100ed6108d1565b6040516100fa9190611588565b60405180910390f35b61011d600480360381019061011891906115a1565b6108d6565b60405161012a9190611588565b60405180910390f35b61014d600480360381019061014891906115cc565b6108eb565b005b61016960048036038101906101649190611662565b610c4a565b005b610185600480360381019061018091906116e0565b610f0f565b6040516101929190611588565b60405180910390f35b6101b560048036038101906101b09190611243565b610f3a565b6040516101c6959493929190611360565b60405180910390f35b6101e960048036038101906101e491906115a1565b6110a3565b6040516101f691906117d5565b60405180910390f35b6060805f805f8086148061021357505f5486115b1561024a576040517f56b77fdc00000000000000000000000000000000000000000000000000000000815260040160405180910390fd5b5f60015f8881526020019081526020015f206040518060a00160405290815f8201805461027690611822565b80601f01602080910402602001604051908101604052809291908181526020018280546102a290611822565b80156102ed5780601f106102c4576101008083540402835291602001916102ed565b820191905f5260205f20905b8154815290600101906020018083116102d057829003601f168201915b5050505050815260200160018201805461030690611822565b80601f016020809104026020016040519081016040528092919081815260200182805461033290611822565b801561037d5780601f106103545761010080835404028352916020019161037d565b820191905f5260205f20905b81548152906001019060200180831161036057829003601f168201915b50505050508152602001600282015f9054906101000a900473ffffffffffffffffffffffffffffffffffffffff1673ffffffffffffffffffffffffffffffffffffffff1673ffffffffffffffffffffffffffffffffffffffff16815260200160038201548152602001600482015f9054906101000a900460ff1615151515815250509050805f01518160200151826040015183606001518460800151955095509550955095505091939590929450565b5f8787905003610469576040517f70df377c00000000000000000000000000000000000000000000000000000000815260040160405180910390fd5b5f89899050036104a5576040517f2ef1310500000000000000000000000000000000000000000000000000000000815260040160405180910390fd5b824211156104df576040517f0819bdcd00000000000000000000000000000000000000000000000000000000815260040160405180910390fd5b60035f8673ffffffffffffffffffffffffffffffffffffffff1673ffffffffffffffffffffffffffffffffffffffff1681526020019081526020015f20548414610555576040517f8baa579f00000000000000000000000000000000000000000000000000000000815260040160405180910390fd5b5f89898989898989306040516020016105759897969594939291906118f3565b6040516020818303038152906040528051906020012090505f8160405160200161059f91906119d1565b6040516020818303038152906040528051906020012090505f6105c3828686611136565b90508773ffffffffffffffffffffffffffffffffffffffff168173ffffffffffffffffffffffffffffffffffffffff161461062a576040517f8baa579f00000000000000000000000000000000000000000000000000000000815260040160405180910390fd5b60035f8973ffffffffffffffffffffffffffffffffffffffff1673ffffffffffffffffffffffffffffffffffffffff1681526020019081526020015f205f81548092919061067790611a23565b91905055505f8081548092919061068d90611a23565b91905055505f805490506040518060a001604052808e8e8080601f0160208091040260200160405190810160405280939291908181526020018383808284375f81840152601f19601f8201169050808301925050505050505081526020018c8c8080601f0160208091040260200160405190810160405280939291908181526020018383808284375f81840152601f19601f8201169050808301925050505050505081526020018a73ffffffffffffffffffffffffffffffffffffffff1681526020014281526020016001151581525060015f8381526020019081526020015f205f820151815f0190816107819190611c34565b5060208201518160010190816107979190611c34565b506040820151816002015f6101000a81548173ffffffffffffffffffffffffffffffffffffffff021916908373ffffffffffffffffffffffffffffffffffffffff160217905550606082015181600301556080820151816004015f6101000a81548160ff02191690831515021790555090505060025f8a73ffffffffffffffffffffffffffffffffffffffff1673ffffffffffffffffffffffffffffffffffffffff1681526020019081526020015f2081908060018154018082558091505060019003905f5260205f20015f90919091909150558873ffffffffffffffffffffffffffffffffffffffff16817f998081f6704b4b62500b58f2a61aec83e1b44865f5836eb36c391e73aa20486a8f8f8f8f426040516108ba959493929190611d2f565b60405180910390a350505050505050505050505050565b5f5481565b6003602052805f5260405f205f915090505481565b5f8614806108f957505f5486115b15610930576040517f56b77fdc00000000000000000000000000000000000000000000000000000000815260040160405180910390fd5b8242111561096a576040517f0819bdcd00000000000000000000000000000000000000000000000000000000815260040160405180910390fd5b60035f8673ffffffffffffffffffffffffffffffffffffffff1673ffffffffffffffffffffffffffffffffffffffff1681526020019081526020015f205484146109e0576040517f8baa579f00000000000000000000000000000000000000000000000000000000815260040160405180910390fd5b5f60015f8881526020019081526020015f209050806004015f9054906101000a900460ff16610a3b576040517fba48b5de00000000000000000000000000000000000000000000000000000000815260040160405180910390fd5b8573ffffffffffffffffffffffffffffffffffffffff16816002015f9054906101000a900473ffffffffffffffffffffffffffffffffffffffff1673ffffffffffffffffffffffffffffffffffffffff1614610ac3576040517f30cd747100000000000000000000000000000000000000000000000000000000815260040160405180910390fd5b5f8787878730604051602001610add959493929190611dc0565b6040516020818303038152906040528051906020012090505f81604051602001610b0791906119d1565b6040516020818303038152906040528051906020012090508773ffffffffffffffffffffffffffffffffffffffff16610b41828787611136565b73ffffffffffffffffffffffffffffffffffffffff1614610b8e576040517f8baa579f00000000000000000000000000000000000000000000000000000000815260040160405180910390fd5b60035f8973ffffffffffffffffffffffffffffffffffffffff1673ffffffffffffffffffffffffffffffffffffffff1681526020019081526020015f205f815480929190610bdb90611a23565b91905055505f836004015f6101000a81548160ff0219169083151502179055508773ffffffffffffffffffffffffffffffffffffffff16897fcdcbb3a920cc4c36693c3d8447ebc2db96012535cb6f993f23160fa685288e1e60405160405180910390a3505050505050505050565b5f8282905003610c86576040517f70df377c00000000000000000000000000000000000000000000000000000000815260040160405180910390fd5b5f8484905003610cc2576040517f2ef1310500000000000000000000000000000000000000000000000000000000815260040160405180910390fd5b5f80815480929190610cd390611a23565b91905055505f805490506040518060a0016040528086868080601f0160208091040260200160405190810160405280939291908181526020018383808284375f81840152601f19601f82011690508083019250505050505050815260200184848080601f0160208091040260200160405190810160405280939291908181526020018383808284375f81840152601f19601f8201169050808301925050505050505081526020013373ffffffffffffffffffffffffffffffffffffffff1681526020014281526020016001151581525060015f8381526020019081526020015f205f820151815f019081610dc79190611c34565b506020820151816001019081610ddd9190611c34565b506040820151816002015f6101000a81548173ffffffffffffffffffffffffffffffffffffffff021916908373ffffffffffffffffffffffffffffffffffffffff160217905550606082015181600301556080820151816004015f6101000a81548160ff02191690831515021790555090505060025f3373ffffffffffffffffffffffffffffffffffffffff1673ffffffffffffffffffffffffffffffffffffffff1681526020019081526020015f2081908060018154018082558091505060019003905f5260205f20015f90919091909150553373ffffffffffffffffffffffffffffffffffffffff16817f998081f6704b4b62500b58f2a61aec83e1b44865f5836eb36c391e73aa20486a8787878742604051610f00959493929190611d2f565b60405180910390a35050505050565b6002602052815f5260405f208181548110610f28575f80fd5b905f5260205f20015f91509150505481565b6001602052805f5260405f205f91509050805f018054610f5990611822565b80601f0160208091040260200160405190810160405280929190818152602001828054610f8590611822565b8015610fd05780601f10610fa757610100808354040283529160200191610fd0565b820191905f5260205f20905b815481529060010190602001808311610fb357829003601f168201915b505050505090806001018054610fe590611822565b80601f016020809104026020016040519081016040528092919081815260200182805461101190611822565b801561105c5780601f106110335761010080835404028352916020019161105c565b820191905f5260205f20905b81548152906001019060200180831161103f57829003601f168201915b505050505090806002015f9054906101000a900473ffffffffffffffffffffffffffffffffffffffff1690806003015490806004015f9054906101000a900460ff16905085565b606060025f8373ffffffffffffffffffffffffffffffffffffffff1673ffffffffffffffffffffffffffffffffffffffff1681526020019081526020015f2080548060200260200160405190810160405280929190818152602001828054801561112a57602002820191905f5260205f20905b815481526020019060010190808311611116575b50505050509050919050565b5f6041838390501461117d576040517f08c379a000000000000000000000000000000000000000000000000000000000815260040161117490611e73565b60405180910390fd5b5f805f853592506020860135915060408601355f1a9050601b8160ff1610156111b057601b816111ad9190611e9d565b90505b6001878285856040515f81526020016040526040516111d29493929190611eef565b6020604051602081039080840390855afa1580156111f2573d5f803e3d5ffd5b5050506020604051035193505050509392505050565b5f80fd5b5f80fd5b5f819050919050565b61122281611210565b811461122c575f80fd5b50565b5f8135905061123d81611219565b92915050565b5f6020828403121561125857611257611208565b5b5f6112658482850161122f565b91505092915050565b5f81519050919050565b5f82825260208201905092915050565b5f5b838110156112a557808201518184015260208101905061128a565b5f8484015250505050565b5f601f19601f8301169050919050565b5f6112ca8261126e565b6112d48185611278565b93506112e4818560208601611288565b6112ed816112b0565b840191505092915050565b5f73ffffffffffffffffffffffffffffffffffffffff82169050919050565b5f611321826112f8565b9050919050565b61133181611317565b82525050565b61134081611210565b82525050565b5f8115159050919050565b61135a81611346565b82525050565b5f60a0820190508181035f83015261137881886112c0565b9050818103602083015261138c81876112c0565b905061139b6040830186611328565b6113a86060830185611337565b6113b56080830184611351565b9695505050505050565b5f80fd5b5f80fd5b5f80fd5b5f8083601f8401126113e0576113df6113bf565b5b8235905067ffffffffffffffff8111156113fd576113fc6113c3565b5b602083019150836001820283011115611419576114186113c7565b5b9250929050565b61142981611317565b8114611433575f80fd5b50565b5f8135905061144481611420565b92915050565b5f8083601f84011261145f5761145e6113bf565b5b8235905067ffffffffffffffff81111561147c5761147b6113c3565b5b602083019150836001820283011115611498576114976113c7565b5b9250929050565b5f805f805f805f805f60c08a8c0312156114bc576114bb611208565b5b5f8a013567ffffffffffffffff8111156114d9576114d861120c565b5b6114e58c828d016113cb565b995099505060208a013567ffffffffffffffff8111156115085761150761120c565b5b6115148c828d016113cb565b975097505060406115278c828d01611436565b95505060606115388c828d0161122f565b94505060806115498c828d0161122f565b93505060a08a013567ffffffffffffffff81111561156a5761156961120c565b5b6115768c828d0161144a565b92509250509295985092959850929598565b5f60208201905061159b5f830184611337565b92915050565b5f602082840312156115b6576115b5611208565b5b5f6115c384828501611436565b91505092915050565b5f805f805f8060a087890312156115e6576115e5611208565b5b5f6115f389828a0161122f565b965050602061160489828a01611436565b955050604061161589828a0161122f565b945050606061162689828a0161122f565b935050608087013567ffffffffffffffff8111156116475761164661120c565b5b61165389828a0161144a565b92509250509295509295509295565b5f805f806040858703121561167a57611679611208565b5b5f85013567ffffffffffffffff8111156116975761169661120c565b5b6116a3878288016113cb565b9450945050602085013567ffffffffffffffff8111156116c6576116c561120c565b5b6116d2878288016113cb565b925092505092959194509250565b5f80604083850312156116f6576116f5611208565b5b5f61170385828601611436565b92505060206117148582860161122f565b9150509250929050565b5f81519050919050565b5f82825260208201905092915050565b5f819050602082019050919050565b61175081611210565b82525050565b5f6117618383611747565b60208301905092915050565b5f602082019050919050565b5f6117838261171e565b61178d8185611728565b935061179883611738565b805f5b838110156117c85781516117af8882611756565b97506117ba8361176d565b92505060018101905061179b565b5085935050505092915050565b5f6020820190508181035f8301526117ed8184611779565b905092915050565b7f4e487b71000000000000000000000000000000000000000000000000000000005f52602260045260245ffd5b5f600282049050600182168061183957607f821691505b60208210810361184c5761184b6117f5565b5b50919050565b5f81905092915050565b828183375f83830152505050565b5f6118758385611852565b935061188283858461185c565b82840190509392505050565b5f8160601b9050919050565b5f6118a48261188e565b9050919050565b5f6118b58261189a565b9050919050565b6118cd6118c882611317565b6118ab565b82525050565b5f819050919050565b6118ed6118e882611210565b6118d3565b82525050565b5f6118ff828a8c61186a565b915061190c82888a61186a565b915061191882876118bc565b60148201915061192882866118dc565b60208201915061193882856118dc565b60208201915061194882846118bc565b6014820191508190509998505050505050505050565b7f19457468657265756d205369676e6564204d6573736167653a0a3332000000005f82015250565b5f611992601c83611852565b915061199d8261195e565b601c82019050919050565b5f819050919050565b5f819050919050565b6119cb6119c6826119a8565b6119b1565b82525050565b5f6119db82611986565b91506119e782846119ba565b60208201915081905092915050565b7f4e487b71000000000000000000000000000000000000000000000000000000005f52601160045260245ffd5b5f611a2d82611210565b91507fffffffffffffffffffffffffffffffffffffffffffffffffffffffffffffffff8203611a5f57611a5e6119f6565b5b600182019050919050565b7f4e487b71000000000000000000000000000000000000000000000000000000005f52604160045260245ffd5b5f819050815f5260205f209050919050565b5f6020601f8301049050919050565b5f82821b905092915050565b5f60088302611af37fffffffffffffffffffffffffffffffffffffffffffffffffffffffffffffffff82611ab8565b611afd8683611ab8565b95508019841693508086168417925050509392505050565b5f819050919050565b5f611b38611b33611b2e84611210565b611b15565b611210565b9050919050565b5f819050919050565b611b5183611b1e565b611b65611b5d82611b3f565b848454611ac4565b825550505050565b5f90565b611b79611b6d565b611b84818484611b48565b505050565b5b81811015611ba757611b9c5f82611b71565b600181019050611b8a565b5050565b601f821115611bec57611bbd81611a97565b611bc684611aa9565b81016020851015611bd5578190505b611be9611be185611aa9565b830182611b89565b50505b505050565b5f82821c905092915050565b5f611c0c5f1984600802611bf1565b1980831691505092915050565b5f611c248383611bfd565b9150826002028217905092915050565b611c3d8261126e565b67ffffffffffffffff811115611c5657611c55611a6a565b5b611c608254611822565b611c6b828285611bab565b5f60209050601f831160018114611c9c575f8415611c8a578287015190505b611c948582611c19565b865550611cfb565b601f198416611caa86611a97565b5f5b82811015611cd157848901518255600182019150602085019450602081019050611cac565b86831015611cee5784890151611cea601f891682611bfd565b8355505b6001600288020188555050505b505050505050565b5f611d0e8385611278565b9350611d1b83858461185c565b611d24836112b0565b840190509392505050565b5f6060820190508181035f830152611d48818789611d03565b90508181036020830152611d5d818587611d03565b9050611d6c6040830184611337565b9695505050505050565b7f64656c65746500000000000000000000000000000000000000000000000000005f82015250565b5f611daa600683611852565b9150611db582611d76565b600682019050919050565b5f611dca82611d9e565b9150611dd682886118dc565b602082019150611de682876118bc565b601482019150611df682866118dc565b602082019150611e0682856118dc565b602082019150611e1682846118bc565b6014820191508190509695505050505050565b7f496e76616c6964207369676e6174757265206c656e67746800000000000000005f82015250565b5f611e5d601883611278565b9150611e6882611e29565b602082019050919050565b5f6020820190508181035f830152611e8a81611e51565b9050919050565b5f60ff82169050919050565b5f611ea782611e91565b9150611eb283611e91565b9250828201905060ff811115611ecb57611eca6119f6565b5b92915050565b611eda816119a8565b82525050565b611ee981611e91565b82525050565b5f608082019050611f025f830187611ed1565b611f0f6020830186611ee0565b611f1c6040830185611ed1565b611f296060830184611ed1565b9594505050505056fea264697066735822122031bbc2a9a07798f4b5bd8f05eb06a5ccfa6217400b56a014099e777bf0e5665a64736f6c63430008140033",
  "immutableReferences": {},
  "source": "// SPDX-License-Identifier: MIT\npragma solidity ^0.8.20;\n\n/// @title NebulaStorage\n/// @notice Immutable on-chain registry of encrypted file CIDs.\n///\n///         Meta-transaction pattern (EIP-191 personal_sign):\n///         - User signs a message off-chain (FREE — no gas)\n///         - Backend relays the transaction and pays gas\n///         - Contract recovers the signer address via ecrecover\n///         - Recovered address is stored as the file owner\n///\n///         Result: on-chain ownership is the REAL user wallet,\n///         users never pay gas, backend wallet is just a relay.\ncontract NebulaStorage {\n\n    // ─── Data Structures ─────────────────────────────────────────────────────\n\n    struct File {\n        string  name;        // Original file name\n        string  ipfsHash;    // IPFS CID (encrypted blob pinned on Pinata)\n        address uploader;    // Actual user wallet (recovered from signature)\n        uint256 timestamp;   // Block timestamp at upload\n        bool    exists;      // Soft-delete flag\n    }\n\n    // ─── State ────────────────────────────────────────────────────────────────\n\n    uint256 public fileCount;\n\n    mapping(uint256  => File)    public files;\n    mapping(address  => uint256[]) public filesByOwner;\n\n    /// @dev Replay-protection: track used nonces per user address\n    mapping(address => uint256) public nonces;\n\n    // ─── Events ───────────────────────────────────────────────────────────────\n\n    event FileUploaded(\n        uint256 indexed fileId,\n        string  name,\n        string  ipfsHash,\n        address indexed uploader,\n        uint256 timestamp\n    );\n\n    event FileDeleted(\n        uint256 indexed fileId,\n        address indexed owner\n    );\n\n    // ─── Custom Errors ────────────────────────────────────────────────────────\n\n    error InvalidSignature();\n    error EmptyHash();\n    error EmptyName();\n    error InvalidFileId();\n    error NotOwner();\n    error AlreadyDeleted();\n    error SignatureExpired();\n\n    // ─── Meta-upload: user signs, backend relays ──────────────────────────────\n\n    /// @notice Register a file on-chain using a user-signed meta-transaction.\n    ///         The backend calls this function and pays gas.\n    ///         The user's wallet is recovered from the signature and stored as owner.\n    ///\n    /// @param _name      Original file name\n    /// @param _ipfsHash  IPFS CID of the encrypted file\n    /// @param _user      Claimed user wallet address\n    /// @param _nonce     User's current nonce (prevents replay)\n    /// @param _deadline  Unix timestamp after which the signature expires\n    /// @param _signature 65-byte ECDSA signature from the user's wallet\n    function uploadFileMeta(\n        string  calldata _name,\n        string  calldata _ipfsHash,\n        address          _user,\n        uint256          _nonce,\n        uint256          _deadline,\n        bytes   calldata _signature\n    ) external {\n        if (bytes(_ipfsHash).length == 0) revert EmptyHash();\n        if (bytes(_name).length    == 0)  revert EmptyName();\n        if (block.timestamp > _deadline)   revert SignatureExpired();\n        if (_nonce != nonces[_user])       revert InvalidSignature();\n\n        // Reconstruct the message the user signed\n        bytes32 msgHash = keccak256(\n            abi.encodePacked(_name, _ipfsHash, _user, _nonce, _deadline, address(this))\n        );\n        // EIP-191 prefix (matches MetaMask personal_sign)\n        bytes32 ethHash = keccak256(\n            abi.encodePacked(\"\\x19Ethereum Signed Message:\\n32\", msgHash)\n        );\n\n        address recovered = _recoverSigner(ethHash, _signature);\n        if (recovered != _user) revert InvalidSignature();\n\n        // Increment nonce (prevents replay of the same signature)\n        nonces[_user]++;\n\n        fileCount++;\n        uint256 fileId = fileCount;\n\n        files[fileId] = File({\n            name:      _name,\n            ipfsHash:  _ipfsHash,\n            uploader:  _user,       // Real user wallet — not msg.sender (relay)\n            timestamp: block.timestamp,\n            exists:    true\n        });\n\n        filesByOwner[_user].push(fileId);\n\n        emit FileUploaded(fileId, _name, _ipfsHash, _user, block.timestamp);\n    }\n\n    /// @notice Soft-delete a file. Also requires a user signature (gasless).\n    function deleteFileMeta(\n        uint256 _fileId,\n        address _user,\n        uint256 _nonce,\n        uint256 _deadline,\n        bytes   calldata _signature\n    ) external {\n        if (_fileId == 0 || _fileId > fileCount) revert InvalidFileId();\n        if (block.timestamp > _deadline)          revert SignatureExpired();\n        if (_nonce != nonces[_user])              revert InvalidSignature();\n\n        File storage f = files[_fileId];\n        if (!f.exists)          revert AlreadyDeleted();\n        if (f.uploader != _user) revert NotOwner();\n\n        bytes32 msgHash = keccak256(\n            abi.encodePacked(\"delete\", _fileId, _user, _nonce, _deadline, address(this))\n        );\n        bytes32 ethHash = keccak256(\n            abi.encodePacked(\"\\x19Ethereum Signed Message:\\n32\", msgHash)\n        );\n        if (_recoverSigner(ethHash, _signature) != _user) revert InvalidSignature();\n\n        nonces[_user]++;\n        f.exists = false;\n        emit FileDeleted(_fileId, _user);\n    }\n\n    // ─── Direct upload (fallback — user pays own gas, no relay needed) ────────\n\n    /// @notice Standard upload where msg.sender IS the owner (user pays gas).\n    ///         Kept as a fallback if user prefers direct signing.\n    function uploadFile(string calldata _name, string calldata _ipfsHash) external {\n        if (bytes(_ipfsHash).length == 0) revert EmptyHash();\n        if (bytes(_name).length    == 0)  revert EmptyName();\n\n        fileCount++;\n        uint256 fileId = fileCount;\n\n        files[fileId] = File({\n            name:      _name,\n            ipfsHash:  _ipfsHash,\n            uploader:  msg.sender,\n            timestamp: block.timestamp,\n            exists:    true\n        });\n\n        filesByOwner[msg.sender].push(fileId);\n        emit FileUploaded(fileId, _name, _ipfsHash, msg.sender, block.timestamp);\n    }\n\n    // ─── View functions ───────────────────────────────────────────────────────\n\n    function getFile(uint256 _fileId)\n        external view\n        returns (string memory name, string memory ipfsHash, address uploader, uint256 timestamp, bool exists)\n    {\n        if (_fileId == 0 || _fileId > fileCount) revert InvalidFileId();\n        File memory f = files[_fileId];\n        return (f.name, f.ipfsHash, f.uploader, f.timestamp, f.exists);\n    }\n\n    function getFilesByOwner(address _owner)\n        external view returns (uint256[] memory)\n    {\n        return filesByOwner[_owner];\n    }\n\n    // ─── Internal ─────────────────────────────────────────────────────────────\n\n    function _recoverSigner(bytes32 _ethHash, bytes calldata _sig)\n        internal pure returns (address)\n    {\n        require(_sig.length == 65, \"Invalid signature length\");\n        bytes32 r;\n        bytes32 s;\n        uint8   v;\n        assembly {\n            r := calldataload(_sig.offset)\n            s := calldataload(add(_sig.offset, 32))\n            v := byte(0, calldataload(add(_sig.offset, 64)))\n        }\n        if (v < 27) v += 27;\n        return ecrecover(_ethHash, v, r, s);\n    }\n}\n",
  "sourcePath": "D:\\Decentralized Cloud Storage\\Decentralized-cloud-storage\\cloud\\contracts\\NebulaStorage.sol",
  "compiler": {
    "name": "solc",
    "version": "0.8.20+commit.a1b79de6.Emscripten.clang"
  },
  "schemaVersion": "3.4.16",
  "updatedAt": "2026-05-27T06:35:23.031Z",
  "networkType": "ethereum",
  "devdoc": {
    "kind": "dev",
    "methods": {
      "uploadFileMeta(string,string,address,uint256,uint256,bytes)": {
        "params": {
          "_deadline": "Unix timestamp after which the signature expires",
          "_ipfsHash": "IPFS CID of the encrypted file",
          "_name": "Original file name",
          "_nonce": "User's current nonce (prevents replay)",
          "_signature": "65-byte ECDSA signature from the user's wallet",
          "_user": "Claimed user wallet address"
        }
      }
    },
    "stateVariables": {
      "nonces": {
        "details": "Replay-protection: track used nonces per user address"
      }
    },
    "title": "NebulaStorage",
    "version": 1
  },
  "userdoc": {
    "kind": "user",
    "methods": {
      "deleteFileMeta(uint256,address,uint256,uint256,bytes)": {
        "notice": "Soft-delete a file. Also requires a user signature (gasless)."
      },
      "uploadFile(string,string)": {
        "notice": "Standard upload where msg.sender IS the owner (user pays gas).         Kept as a fallback if user prefers direct signing."
      },
      "uploadFileMeta(string,string,address,uint256,uint256,bytes)": {
        "notice": "Register a file on-chain using a user-signed meta-transaction.         The backend calls this function and pays gas.         The user's wallet is recovered from the signature and stored as owner."
      }
    },
    "notice": "Immutable on-chain registry of encrypted file CIDs.         Meta-transaction pattern (EIP-191 personal_sign):         - User signs a message off-chain (FREE — no gas)         - Backend relays the transaction and pays gas         - Contract recovers the signer address via ecrecover         - Recovered address is stored as the file owner         Result: on-chain ownership is the REAL user wallet,         users never pay gas, backend wallet is just a relay.",
    "version": 1
  }
}